{
  "_format": "hh-sol-artifact-1",
  "contractName": "TradingAlgoAVS",
  "sourceName": "contracts/TradingAlgoAVS.sol",
  "abi": [
    {
      "anonymous": false,
      "inputs": [
        {
          "indexed": true,
          "internalType": "uint256",
          "name": "strategyId",
          "type": "uint256"
        },
        {
          "indexed": true,
          "internalType": "address",
          "name": "provider",
          "type": "address"
        },
        {
          "indexed": false,
          "internalType": "uint256",
          "name": "subscriptionFee",
          "type": "uint256"
        },
        {
          "indexed": false,
          "internalType": "string",
          "name": "subscriptionPeriod",
          "type": "string"
        },
        {
          "indexed": false,
          "internalType": "string",
          "name": "strategyUid",
          "type": "string"
        },
        {
          "indexed": false,
          "internalType": "uint256",
          "name": "roi",
          "type": "uint256"
        },
        {
          "indexed": false,
          "internalType": "uint256",
          "name": "profitability",
          "type": "uint256"
        },
        {
          "indexed": false,
          "internalType": "uint256",
          "name": "risk",
          "type": "uint256"
        }
      ],
      "name": "StrategyCreated",
      "type": "event"
    },
    {
      "anonymous": false,
      "inputs": [
        {
          "indexed": true,
          "internalType": "uint256",
          "name": "strategyId",
          "type": "uint256"
        },
        {
          "indexed": true,
          "internalType": "address",
          "name": "subscriber",
          "type": "address"
        }
      ],
      "name": "SubscribedToStrategy",
      "type": "event"
    },
    {
      "inputs": [
        {
          "internalType": "string",
          "name": "_strategyUid",
          "type": "string"
        },
        {
          "internalType": "uint256",
          "name": "_subscriptionFee",
          "type": "uint256"
        },
        {
          "internalType": "string",
          "name": "_subscriptionPeriod",
          "type": "string"
        },
        {
          "internalType": "uint256",
          "name": "_roi",
          "type": "uint256"
        },
        {
          "internalType": "uint256",
          "name": "_profitability",
          "type": "uint256"
        },
        {
          "internalType": "uint256",
          "name": "_risk",
          "type": "uint256"
        }
      ],
      "name": "createStrategy",
      "outputs": [],
      "stateMutability": "nonpayable",
      "type": "function"
    },
    {
      "inputs": [],
      "name": "getAllStrategies",
      "outputs": [
        {
          "components": [
            {
              "internalType": "uint256",
              "name": "id",
              "type": "uint256"
            },
            {
              "internalType": "address",
              "name": "provider",
              "type": "address"
            },
            {
              "internalType": "uint256",
              "name": "subscriptionFee",
              "type": "uint256"
            },
            {
              "internalType": "string",
              "name": "subscriptionPeriod",
              "type": "string"
            },
            {
              "internalType": "string",
              "name": "strategyUid",
              "type": "string"
            },
            {
              "internalType": "uint256",
              "name": "roi",
              "type": "uint256"
            },
            {
              "internalType": "uint256",
              "name": "profitability",
              "type": "uint256"
            },
            {
              "internalType": "uint256",
              "name": "risk",
              "type": "uint256"
            },
            {
              "internalType": "bool",
              "name": "active",
              "type": "bool"
            },
            {
              "internalType": "uint256",
              "name": "subscriberCount",
              "type": "uint256"
            }
          ],
          "internalType": "struct TradingAlgoAVS.Strategy[]",
          "name": "",
          "type": "tuple[]"
        }
      ],
      "stateMutability": "view",
      "type": "function"
    },
    {
      "inputs": [],
      "name": "getMyStrategies",
      "outputs": [
        {
          "components": [
            {
              "internalType": "uint256",
              "name": "id",
              "type": "uint256"
            },
            {
              "internalType": "address",
              "name": "provider",
              "type": "address"
            },
            {
              "internalType": "uint256",
              "name": "subscriptionFee",
              "type": "uint256"
            },
            {
              "internalType": "string",
              "name": "subscriptionPeriod",
              "type": "string"
            },
            {
              "internalType": "string",
              "name": "strategyUid",
              "type": "string"
            },
            {
              "internalType": "uint256",
              "name": "roi",
              "type": "uint256"
            },
            {
              "internalType": "uint256",
              "name": "profitability",
              "type": "uint256"
            },
            {
              "internalType": "uint256",
              "name": "risk",
              "type": "uint256"
            },
            {
              "internalType": "bool",
              "name": "active",
              "type": "bool"
            },
            {
              "internalType": "uint256",
              "name": "subscriberCount",
              "type": "uint256"
            }
          ],
          "internalType": "struct TradingAlgoAVS.Strategy[]",
          "name": "",
          "type": "tuple[]"
        }
      ],
      "stateMutability": "view",
      "type": "function"
    },
    {
      "inputs": [
        {
          "internalType": "uint256",
          "name": "_id",
          "type": "uint256"
        }
      ],
      "name": "getStrategy",
      "outputs": [
        {
          "components": [
            {
              "internalType": "uint256",
              "name": "id",
              "type": "uint256"
            },
            {
              "internalType": "address",
              "name": "provider",
              "type": "address"
            },
            {
              "internalType": "uint256",
              "name": "subscriptionFee",
              "type": "uint256"
            },
            {
              "internalType": "string",
              "name": "subscriptionPeriod",
              "type": "string"
            },
            {
              "internalType": "string",
              "name": "strategyUid",
              "type": "string"
            },
            {
              "internalType": "uint256",
              "name": "roi",
              "type": "uint256"
            },
            {
              "internalType": "uint256",
              "name": "profitability",
              "type": "uint256"
            },
            {
              "internalType": "uint256",
              "name": "risk",
              "type": "uint256"
            },
            {
              "internalType": "bool",
              "name": "active",
              "type": "bool"
            },
            {
              "internalType": "uint256",
              "name": "subscriberCount",
              "type": "uint256"
            }
          ],
          "internalType": "struct TradingAlgoAVS.Strategy",
          "name": "",
          "type": "tuple"
        }
      ],
      "stateMutability": "view",
      "type": "function"
    },
    {
      "inputs": [
        {
          "internalType": "uint256",
          "name": "",
          "type": "uint256"
        }
      ],
      "name": "strategies",
      "outputs": [
        {
          "internalType": "uint256",
          "name": "id",
          "type": "uint256"
        },
        {
          "internalType": "address",
          "name": "provider",
          "type": "address"
        },
        {
          "internalType": "uint256",
          "name": "subscriptionFee",
          "type": "uint256"
        },
        {
          "internalType": "string",
          "name": "subscriptionPeriod",
          "type": "string"
        },
        {
          "internalType": "string",
          "name": "strategyUid",
          "type": "string"
        },
        {
          "internalType": "uint256",
          "name": "roi",
          "type": "uint256"
        },
        {
          "internalType": "uint256",
          "name": "profitability",
          "type": "uint256"
        },
        {
          "internalType": "uint256",
          "name": "risk",
          "type": "uint256"
        },
        {
          "internalType": "bool",
          "name": "active",
          "type": "bool"
        },
        {
          "internalType": "uint256",
          "name": "subscriberCount",
          "type": "uint256"
        }
      ],
      "stateMutability": "view",
      "type": "function"
    },
    {
      "inputs": [
        {
          "internalType": "uint256",
          "name": "_id",
          "type": "uint256"
        }
      ],
      "name": "subscribeToStrategy",
      "outputs": [],
      "stateMutability": "nonpayable",
      "type": "function"
    },
    {
      "inputs": [
        {
          "internalType": "uint256",
          "name": "",
          "type": "uint256"
        },
        {
          "internalType": "address",
          "name": "",
          "type": "address"
        }
      ],
      "name": "subscriptions",
      "outputs": [
        {
          "internalType": "bool",
          "name": "",
          "type": "bool"
        }
      ],
      "stateMutability": "view",
      "type": "function"
    }
  ],
  "bytecode": "0x6080604052348015600f57600080fd5b506120e98061001f6000396000f3fe608060405234801561001057600080fd5b506004361061007d5760003560e01c8063c33791661161005b578063c3379166146100d8578063c3b2886414610108578063cfc0cc3414610126578063d574ea3d146101565761007d565b806313cf62111461008257806359d982651461009e5780638534e787146100ba575b600080fd5b61009c60048036038101906100979190611369565b61018f565b005b6100b860048036038101906100b3919061142e565b6104c5565b005b6100c26106a2565b6040516100cf91906116e8565b60405180910390f35b6100f260048036038101906100ed9190611736565b610a3b565b6040516100ff9190611785565b60405180910390f35b610110610a6a565b60405161011d91906116e8565b60405180910390f35b610140600480360381019061013b919061142e565b610cf5565b60405161014d9190611881565b60405180910390f35b610170600480360381019061016b919061142e565b610ef4565b6040516101869a9998979695949392919061190b565b60405180910390f35b60405160200161019e90611a0c565b60405160208183030381529060405280519060200120846040516020016101c59190611a52565b60405160208183030381529060405280519060200120148061023057506040516020016101f190611ab5565b60405160208183030381529060405280519060200120846040516020016102189190611a52565b60405160208183030381529060405280519060200120145b80610284575060405160200161024590611b16565b604051602081830303815290604052805190602001208460405160200161026c9190611a52565b60405160208183030381529060405280519060200120145b6102c3576040517f08c379a00000000000000000000000000000000000000000000000000000000081526004016102ba90611b77565b60405180910390fd5b60405180610140016040528060005481526020013373ffffffffffffffffffffffffffffffffffffffff168152602001868152602001858152602001878152602001848152602001838152602001828152602001600115158152602001600081525060016000805481526020019081526020016000206000820151816000015560208201518160010160006101000a81548173ffffffffffffffffffffffffffffffffffffffff021916908373ffffffffffffffffffffffffffffffffffffffff1602179055506040820151816002015560608201518160030190816103a99190611da3565b5060808201518160040190816103bf9190611da3565b5060a0820151816005015560c0820151816006015560e082015181600701556101008201518160080160006101000a81548160ff02191690831515021790555061012082015181600901559050503373ffffffffffffffffffffffffffffffffffffffff166000547f4d33db09ba257b965787875294cb3ccc93f4e0cac7ddc5d287960399425ab5e187878a88888860405161046096959493929190611e75565b60405180910390a36104a66040518060400160405280601c81526020017f5374726174656779206372656174696f6e20636f6d706c657465642100000000815250611085565b6000808154809291906104b890611f13565b9190505550505050505050565b6001600082815260200190815260200160002060080160009054906101000a900460ff16610528576040517f08c379a000000000000000000000000000000000000000000000000000000000815260040161051f90611fa7565b60405180910390fd5b6002600082815260200190815260200160002060003373ffffffffffffffffffffffffffffffffffffffff1673ffffffffffffffffffffffffffffffffffffffff16815260200190815260200160002060009054906101000a900460ff16156105c6576040517f08c379a00000000000000000000000000000000000000000000000000000000081526004016105bd90612013565b60405180910390fd5b60016002600083815260200190815260200160002060003373ffffffffffffffffffffffffffffffffffffffff1673ffffffffffffffffffffffffffffffffffffffff16815260200190815260200160002060006101000a81548160ff02191690831515021790555060016000828152602001908152602001600020600901600081548092919061065690611f13565b91905055503373ffffffffffffffffffffffffffffffffffffffff16817f928f33b2cd4763d597106c21124ba2eb19083352b2bb869e94b8955faeea829f60405160405180910390a350565b60606000805b600054811015610737573373ffffffffffffffffffffffffffffffffffffffff166001600083815260200190815260200160002060010160009054906101000a900473ffffffffffffffffffffffffffffffffffffffff1673ffffffffffffffffffffffffffffffffffffffff160361072a57818061072690611f13565b9250505b80806001019150506106a8565b5060008167ffffffffffffffff81111561075457610753611208565b5b60405190808252806020026020018201604052801561078d57816020015b61077a611164565b8152602001906001900390816107725790505b5090506000805b600054811015610a31573373ffffffffffffffffffffffffffffffffffffffff166001600083815260200190815260200160002060010160009054906101000a900473ffffffffffffffffffffffffffffffffffffffff1673ffffffffffffffffffffffffffffffffffffffff1603610a24576001600082815260200190815260200160002060405180610140016040529081600082015481526020016001820160009054906101000a900473ffffffffffffffffffffffffffffffffffffffff1673ffffffffffffffffffffffffffffffffffffffff1673ffffffffffffffffffffffffffffffffffffffff168152602001600282015481526020016003820180546108a090611bc6565b80601f01602080910402602001604051908101604052809291908181526020018280546108cc90611bc6565b80156109195780601f106108ee57610100808354040283529160200191610919565b820191906000526020600020905b8154815290600101906020018083116108fc57829003601f168201915b5050505050815260200160048201805461093290611bc6565b80601f016020809104026020016040519081016040528092919081815260200182805461095e90611bc6565b80156109ab5780601f10610980576101008083540402835291602001916109ab565b820191906000526020600020905b81548152906001019060200180831161098e57829003601f168201915b505050505081526020016005820154815260200160068201548152602001600782015481526020016008820160009054906101000a900460ff16151515158152602001600982015481525050838381518110610a0a57610a09612033565b5b60200260200101819052508180610a2090611f13565b9250505b8080600101915050610794565b5081935050505090565b60026020528160005260406000206020528060005260406000206000915091509054906101000a900460ff1681565b60606000805467ffffffffffffffff811115610a8957610a88611208565b5b604051908082528060200260200182016040528015610ac257816020015b610aaf611164565b815260200190600190039081610aa75790505b50905060005b600054811015610ced576001600082815260200190815260200160002060405180610140016040529081600082015481526020016001820160009054906101000a900473ffffffffffffffffffffffffffffffffffffffff1673ffffffffffffffffffffffffffffffffffffffff1673ffffffffffffffffffffffffffffffffffffffff16815260200160028201548152602001600382018054610b6b90611bc6565b80601f0160208091040260200160405190810160405280929190818152602001828054610b9790611bc6565b8015610be45780601f10610bb957610100808354040283529160200191610be4565b820191906000526020600020905b815481529060010190602001808311610bc757829003601f168201915b50505050508152602001600482018054610bfd90611bc6565b80601f0160208091040260200160405190810160405280929190818152602001828054610c2990611bc6565b8015610c765780601f10610c4b57610100808354040283529160200191610c76565b820191906000526020600020905b815481529060010190602001808311610c5957829003601f168201915b505050505081526020016005820154815260200160068201548152602001600782015481526020016008820160009054906101000a900460ff16151515158152602001600982015481525050828281518110610cd557610cd4612033565b5b60200260200101819052508080600101915050610ac8565b508091505090565b610cfd611164565b6001600083815260200190815260200160002060405180610140016040529081600082015481526020016001820160009054906101000a900473ffffffffffffffffffffffffffffffffffffffff1673ffffffffffffffffffffffffffffffffffffffff1673ffffffffffffffffffffffffffffffffffffffff16815260200160028201548152602001600382018054610d9690611bc6565b80601f0160208091040260200160405190810160405280929190818152602001828054610dc290611bc6565b8015610e0f5780601f10610de457610100808354040283529160200191610e0f565b820191906000526020600020905b815481529060010190602001808311610df257829003601f168201915b50505050508152602001600482018054610e2890611bc6565b80601f0160208091040260200160405190810160405280929190818152602001828054610e5490611bc6565b8015610ea15780601f10610e7657610100808354040283529160200191610ea1565b820191906000526020600020905b815481529060010190602001808311610e8457829003601f168201915b505050505081526020016005820154815260200160068201548152602001600782015481526020016008820160009054906101000a900460ff161515151581526020016009820154815250509050919050565b60016020528060005260406000206000915090508060000154908060010160009054906101000a900473ffffffffffffffffffffffffffffffffffffffff1690806002015490806003018054610f4990611bc6565b80601f0160208091040260200160405190810160405280929190818152602001828054610f7590611bc6565b8015610fc25780601f10610f9757610100808354040283529160200191610fc2565b820191906000526020600020905b815481529060010190602001808311610fa557829003601f168201915b505050505090806004018054610fd790611bc6565b80601f016020809104026020016040519081016040528092919081815260200182805461100390611bc6565b80156110505780601f1061102557610100808354040283529160200191611050565b820191906000526020600020905b81548152906001019060200180831161103357829003601f168201915b5050505050908060050154908060060154908060070154908060080160009054906101000a900460ff1690806009015490508a565b61111b816040516024016110999190612062565b6040516020818303038152906040527f41304fac000000000000000000000000000000000000000000000000000000007bffffffffffffffffffffffffffffffffffffffffffffffffffffffff19166020820180517bffffffffffffffffffffffffffffffffffffffffffffffffffffffff838183161783525050505061111e565b50565b6111358161112d611138611159565b63ffffffff16565b50565b60006a636f6e736f6c652e6c6f679050600080835160208501845afa505050565b6111cf819050919050565b60405180610140016040528060008152602001600073ffffffffffffffffffffffffffffffffffffffff168152602001600081526020016060815260200160608152602001600081526020016000815260200160008152602001600015158152602001600081525090565b6111d7612084565b565b6000604051905090565b600080fd5b600080fd5b600080fd5b600080fd5b6000601f19601f8301169050919050565b7f4e487b7100000000000000000000000000000000000000000000000000000000600052604160045260246000fd5b611240826111f7565b810181811067ffffffffffffffff8211171561125f5761125e611208565b5b80604052505050565b60006112726111d9565b905061127e8282611237565b919050565b600067ffffffffffffffff82111561129e5761129d611208565b5b6112a7826111f7565b9050602081019050919050565b82818337600083830152505050565b60006112d66112d184611283565b611268565b9050828152602081018484840111156112f2576112f16111f2565b5b6112fd8482856112b4565b509392505050565b600082601f83011261131a576113196111ed565b5b813561132a8482602086016112c3565b91505092915050565b6000819050919050565b61134681611333565b811461135157600080fd5b50565b6000813590506113638161133d565b92915050565b60008060008060008060c08789031215611386576113856111e3565b5b600087013567ffffffffffffffff8111156113a4576113a36111e8565b5b6113b089828a01611305565b96505060206113c189828a01611354565b955050604087013567ffffffffffffffff8111156113e2576113e16111e8565b5b6113ee89828a01611305565b94505060606113ff89828a01611354565b935050608061141089828a01611354565b92505060a061142189828a01611354565b9150509295509295509295565b600060208284031215611444576114436111e3565b5b600061145284828501611354565b91505092915050565b600081519050919050565b600082825260208201905092915050565b6000819050602082019050919050565b61149081611333565b82525050565b600073ffffffffffffffffffffffffffffffffffffffff82169050919050565b60006114c182611496565b9050919050565b6114d1816114b6565b82525050565b600081519050919050565b600082825260208201905092915050565b60005b838110156115115780820151818401526020810190506114f6565b60008484015250505050565b6000611528826114d7565b61153281856114e2565b93506115428185602086016114f3565b61154b816111f7565b840191505092915050565b60008115159050919050565b61156b81611556565b82525050565b60006101408301600083015161158a6000860182611487565b50602083015161159d60208601826114c8565b5060408301516115b06040860182611487565b50606083015184820360608601526115c8828261151d565b915050608083015184820360808601526115e2828261151d565b91505060a08301516115f760a0860182611487565b5060c083015161160a60c0860182611487565b5060e083015161161d60e0860182611487565b50610100830151611632610100860182611562565b50610120830151611647610120860182611487565b508091505092915050565b600061165e8383611571565b905092915050565b6000602082019050919050565b600061167e8261145b565b6116888185611466565b93508360208202850161169a85611477565b8060005b858110156116d657848403895281516116b78582611652565b94506116c283611666565b925060208a0199505060018101905061169e565b50829750879550505050505092915050565b600060208201905081810360008301526117028184611673565b905092915050565b611713816114b6565b811461171e57600080fd5b50565b6000813590506117308161170a565b92915050565b6000806040838503121561174d5761174c6111e3565b5b600061175b85828601611354565b925050602061176c85828601611721565b9150509250929050565b61177f81611556565b82525050565b600060208201905061179a6000830184611776565b92915050565b6000610140830160008301516117b96000860182611487565b5060208301516117cc60208601826114c8565b5060408301516117df6040860182611487565b50606083015184820360608601526117f7828261151d565b91505060808301518482036080860152611811828261151d565b91505060a083015161182660a0860182611487565b5060c083015161183960c0860182611487565b5060e083015161184c60e0860182611487565b50610100830151611861610100860182611562565b50610120830151611876610120860182611487565b508091505092915050565b6000602082019050818103600083015261189b81846117a0565b905092915050565b6118ac81611333565b82525050565b6118bb816114b6565b82525050565b600082825260208201905092915050565b60006118dd826114d7565b6118e781856118c1565b93506118f78185602086016114f3565b611900816111f7565b840191505092915050565b600061014082019050611921600083018d6118a3565b61192e602083018c6118b2565b61193b604083018b6118a3565b818103606083015261194d818a6118d2565b9050818103608083015261196181896118d2565b905061197060a08301886118a3565b61197d60c08301876118a3565b61198a60e08301866118a3565b611998610100830185611776565b6119a66101208301846118a3565b9b9a5050505050505050505050565b600081905092915050565b7f6461790000000000000000000000000000000000000000000000000000000000600082015250565b60006119f66003836119b5565b9150611a01826119c0565b600382019050919050565b6000611a17826119e9565b9150819050919050565b6000611a2c826114d7565b611a3681856119b5565b9350611a468185602086016114f3565b80840191505092915050565b6000611a5e8284611a21565b915081905092915050565b7f7765656b00000000000000000000000000000000000000000000000000000000600082015250565b6000611a9f6004836119b5565b9150611aaa82611a69565b600482019050919050565b6000611ac082611a92565b9150819050919050565b7f6d6f6e7468000000000000000000000000000000000000000000000000000000600082015250565b6000611b006005836119b5565b9150611b0b82611aca565b600582019050919050565b6000611b2182611af3565b9150819050919050565b7f496e76616c696420737562736372697074696f6e20706572696f640000000000600082015250565b6000611b61601b836118c1565b9150611b6c82611b2b565b602082019050919050565b60006020820190508181036000830152611b9081611b54565b9050919050565b7f4e487b7100000000000000000000000000000000000000000000000000000000600052602260045260246000fd5b60006002820490506001821680611bde57607f821691505b602082108103611bf157611bf0611b97565b5b50919050565b60008190508160005260206000209050919050565b60006020601f8301049050919050565b600082821b905092915050565b600060088302611c597fffffffffffffffffffffffffffffffffffffffffffffffffffffffffffffffff82611c1c565b611c638683611c1c565b95508019841693508086168417925050509392505050565b6000819050919050565b6000611ca0611c9b611c9684611333565b611c7b565b611333565b9050919050565b6000819050919050565b611cba83611c85565b611cce611cc682611ca7565b848454611c29565b825550505050565b600090565b611ce3611cd6565b611cee818484611cb1565b505050565b5b81811015611d1257611d07600082611cdb565b600181019050611cf4565b5050565b601f821115611d5757611d2881611bf7565b611d3184611c0c565b81016020851015611d40578190505b611d54611d4c85611c0c565b830182611cf3565b50505b505050565b600082821c905092915050565b6000611d7a60001984600802611d5c565b1980831691505092915050565b6000611d938383611d69565b9150826002028217905092915050565b611dac826114d7565b67ffffffffffffffff811115611dc557611dc4611208565b5b611dcf8254611bc6565b611dda828285611d16565b600060209050601f831160018114611e0d5760008415611dfb578287015190505b611e058582611d87565b865550611e6d565b601f198416611e1b86611bf7565b60005b82811015611e4357848901518255600182019150602085019450602081019050611e1e565b86831015611e605784890151611e5c601f891682611d69565b8355505b6001600288020188555050505b505050505050565b600060c082019050611e8a60008301896118a3565b8181036020830152611e9c81886118d2565b90508181036040830152611eb081876118d2565b9050611ebf60608301866118a3565b611ecc60808301856118a3565b611ed960a08301846118a3565b979650505050505050565b7f4e487b7100000000000000000000000000000000000000000000000000000000600052601160045260246000fd5b6000611f1e82611333565b91507fffffffffffffffffffffffffffffffffffffffffffffffffffffffffffffffff8203611f5057611f4f611ee4565b5b600182019050919050565b7f5374726174656779206973206e6f742061637469766500000000000000000000600082015250565b6000611f916016836118c1565b9150611f9c82611f5b565b602082019050919050565b60006020820190508181036000830152611fc081611f84565b9050919050565b7f416c726561647920737562736372696265640000000000000000000000000000600082015250565b6000611ffd6012836118c1565b915061200882611fc7565b602082019050919050565b6000602082019050818103600083015261202c81611ff0565b9050919050565b7f4e487b7100000000000000000000000000000000000000000000000000000000600052603260045260246000fd5b6000602082019050818103600083015261207c81846118d2565b905092915050565b7f4e487b7100000000000000000000000000000000000000000000000000000000600052605160045260246000fdfea2646970667358221220a65b4f55a6f4210324c0d0457674c505d12d15ac5d87f19b0e2187fecdf00d6464736f6c634300081c0033",
  "linkReferences": {},
  "deployedLinkReferences": {}
}